{
  "contractName": "Ownership",
  "abi": [
    {
      "inputs": [],
      "stateMutability": "nonpayable",
      "type": "constructor"
    },
    {
      "inputs": [
        {
          "internalType": "uint256",
          "name": "",
          "type": "uint256"
        },
        {
          "internalType": "address",
          "name": "",
          "type": "address"
        }
      ],
      "name": "access",
      "outputs": [
        {
          "internalType": "bool",
          "name": "",
          "type": "bool"
        }
      ],
      "stateMutability": "view",
      "type": "function",
      "constant": true
    },
    {
      "inputs": [
        {
          "internalType": "uint256",
          "name": "",
          "type": "uint256"
        }
      ],
      "name": "owners",
      "outputs": [
        {
          "internalType": "address",
          "name": "",
          "type": "address"
        }
      ],
      "stateMutability": "view",
      "type": "function",
      "constant": true
    },
    {
      "inputs": [
        {
          "internalType": "uint256",
          "name": "",
          "type": "uint256"
        }
      ],
      "name": "requestCounters",
      "outputs": [
        {
          "internalType": "uint256",
          "name": "",
          "type": "uint256"
        }
      ],
      "stateMutability": "view",
      "type": "function",
      "constant": true
    },
    {
      "inputs": [
        {
          "internalType": "uint256",
          "name": "",
          "type": "uint256"
        },
        {
          "internalType": "uint256",
          "name": "",
          "type": "uint256"
        }
      ],
      "name": "requests",
      "outputs": [
        {
          "internalType": "address",
          "name": "",
          "type": "address"
        }
      ],
      "stateMutability": "view",
      "type": "function",
      "constant": true
    },
    {
      "inputs": [
        {
          "internalType": "uint256",
          "name": "fileID",
          "type": "uint256"
        }
      ],
      "name": "getFileOwner",
      "outputs": [
        {
          "internalType": "address",
          "name": "",
          "type": "address"
        }
      ],
      "stateMutability": "view",
      "type": "function",
      "constant": true
    },
    {
      "inputs": [],
      "name": "newFile",
      "outputs": [],
      "stateMutability": "nonpayable",
      "type": "function"
    },
    {
      "inputs": [],
      "name": "getFileCounter",
      "outputs": [
        {
          "internalType": "uint256",
          "name": "",
          "type": "uint256"
        }
      ],
      "stateMutability": "view",
      "type": "function",
      "constant": true
    },
    {
      "inputs": [
        {
          "internalType": "uint256",
          "name": "fileID",
          "type": "uint256"
        }
      ],
      "name": "getFileRequests",
      "outputs": [
        {
          "internalType": "address[]",
          "name": "",
          "type": "address[]"
        }
      ],
      "stateMutability": "view",
      "type": "function",
      "constant": true
    },
    {
      "inputs": [
        {
          "internalType": "uint256",
          "name": "fileID",
          "type": "uint256"
        },
        {
          "internalType": "address",
          "name": "newUser",
          "type": "address"
        }
      ],
      "name": "allowAccess",
      "outputs": [],
      "stateMutability": "nonpayable",
      "type": "function"
    },
    {
      "inputs": [
        {
          "internalType": "uint256",
          "name": "fileID",
          "type": "uint256"
        },
        {
          "internalType": "uint256",
          "name": "requestID",
          "type": "uint256"
        },
        {
          "internalType": "bool",
          "name": "approve",
          "type": "bool"
        }
      ],
      "name": "fulfillRequest",
      "outputs": [],
      "stateMutability": "nonpayable",
      "type": "function"
    },
    {
      "inputs": [
        {
          "internalType": "uint256",
          "name": "fileID",
          "type": "uint256"
        },
        {
          "internalType": "address",
          "name": "user",
          "type": "address"
        }
      ],
      "name": "checkAccess",
      "outputs": [
        {
          "internalType": "bool",
          "name": "",
          "type": "bool"
        }
      ],
      "stateMutability": "view",
      "type": "function",
      "constant": true
    },
    {
      "inputs": [
        {
          "internalType": "uint256",
          "name": "fileID",
          "type": "uint256"
        }
      ],
      "name": "requestAccess",
      "outputs": [],
      "stateMutability": "nonpayable",
      "type": "function"
    }
  ],
  "bytecode": "0x608060405234801561001057600080fd5b5060008081905550610b98806100276000396000f3fe608060405234801561001057600080fd5b50600436106100b45760003560e01c806390e3df7d1161007157806390e3df7d1461023d57806395e9463f146102955780639962ffb0146102f9578063d13c87031461033b578063ed61ac551461039f578063fb976bef146103bd576100b4565b8063025e7c27146100b9578063075ac1a0146101115780632b576325146101555780634ab617cf146101a35780637fdc2cdc146101ad5780639089add8146101db575b600080fd5b6100e5600480360360208110156100cf57600080fd5b8101908080359060200190929190505050610440565b604051808273ffffffffffffffffffffffffffffffffffffffff16815260200191505060405180910390f35b6101536004803603606081101561012757600080fd5b810190808035906020019092919080359060200190929190803515159060200190929190505050610473565b005b6101a16004803603604081101561016b57600080fd5b8101908080359060200190929190803573ffffffffffffffffffffffffffffffffffffffff169060200190929190505050610649565b005b6101ab61078c565b005b6101d9600480360360208110156101c357600080fd5b8101908080359060200190929190505050610874565b005b610211600480360360408110156101f157600080fd5b81019080803590602001909291908035906020019092919050505061090e565b604051808273ffffffffffffffffffffffffffffffffffffffff16815260200191505060405180910390f35b6102696004803603602081101561025357600080fd5b8101908080359060200190929190505050610950565b604051808273ffffffffffffffffffffffffffffffffffffffff16815260200191505060405180910390f35b6102e1600480360360408110156102ab57600080fd5b8101908080359060200190929190803573ffffffffffffffffffffffffffffffffffffffff16906020019092919050505061098d565b60405180821515815260200191505060405180910390f35b6103256004803603602081101561030f57600080fd5b81019080803590602001909291905050506109bc565b6040518082815260200191505060405180910390f35b6103876004803603604081101561035157600080fd5b8101908080359060200190929190803573ffffffffffffffffffffffffffffffffffffffff1690602001909291905050506109d4565b60405180821515815260200191505060405180910390f35b6103a7610a3c565b6040518082815260200191505060405180910390f35b6103e9600480360360208110156103d357600080fd5b8101908080359060200190929190505050610a45565b6040518080602001828103825283818151815260200191508051906020019060200280838360005b8381101561042c578082015181840152602081019050610411565b505050509050019250505060405180910390f35b60016020528060005260406000206000915054906101000a900473ffffffffffffffffffffffffffffffffffffffff1681565b826001600082815260200190815260200160002060009054906101000a900473ffffffffffffffffffffffffffffffffffffffff1673ffffffffffffffffffffffffffffffffffffffff163373ffffffffffffffffffffffffffffffffffffffff1614610548576040517f08c379a000000000000000000000000000000000000000000000000000000000815260040180806020018281038252601e8152602001807f5265737472696374656420746f204163636f756e742773204f776e65722e000081525060200191505060405180910390fd5b81156105fc57600160036000868152602001908152602001600020600060046000888152602001908152602001600020600087815260200190815260200160002060009054906101000a900473ffffffffffffffffffffffffffffffffffffffff1673ffffffffffffffffffffffffffffffffffffffff1673ffffffffffffffffffffffffffffffffffffffff16815260200190815260200160002060006101000a81548160ff0219169083151502179055505b60046000858152602001908152602001600020600084815260200190815260200160002060006101000a81549073ffffffffffffffffffffffffffffffffffffffff021916905550505050565b816001600082815260200190815260200160002060009054906101000a900473ffffffffffffffffffffffffffffffffffffffff1673ffffffffffffffffffffffffffffffffffffffff163373ffffffffffffffffffffffffffffffffffffffff161461071e576040517f08c379a000000000000000000000000000000000000000000000000000000000815260040180806020018281038252601e8152602001807f5265737472696374656420746f204163636f756e742773204f776e65722e000081525060200191505060405180910390fd5b60016003600085815260200190815260200160002060008473ffffffffffffffffffffffffffffffffffffffff1673ffffffffffffffffffffffffffffffffffffffff16815260200190815260200160002060006101000a81548160ff021916908315150217905550505050565b33600160008054815260200190815260200160002060006101000a81548173ffffffffffffffffffffffffffffffffffffffff021916908373ffffffffffffffffffffffffffffffffffffffff16021790555060006002600080548152602001908152602001600020819055506001600360008054815260200190815260200160002060003373ffffffffffffffffffffffffffffffffffffffff1673ffffffffffffffffffffffffffffffffffffffff16815260200190815260200160002060006101000a81548160ff021916908315150217905550600080815460010191905081905550565b336004600083815260200190815260200160002060006002600085815260200190815260200160002054815260200190815260200160002060006101000a81548173ffffffffffffffffffffffffffffffffffffffff021916908373ffffffffffffffffffffffffffffffffffffffff16021790555060026000828152602001908152602001600020600081546001019190508190555050565b60046020528160005260406000206020528060005260406000206000915091509054906101000a900473ffffffffffffffffffffffffffffffffffffffff1681565b60006001600083815260200190815260200160002060009054906101000a900473ffffffffffffffffffffffffffffffffffffffff169050919050565b60036020528160005260406000206020528060005260406000206000915091509054906101000a900460ff1681565b60026020528060005260406000206000915090505481565b60006003600084815260200190815260200160002060008373ffffffffffffffffffffffffffffffffffffffff1673ffffffffffffffffffffffffffffffffffffffff16815260200190815260200160002060009054906101000a900460ff16905092915050565b60008054905090565b606080600260008481526020019081526020016000205467ffffffffffffffff81118015610a7257600080fd5b50604051908082528060200260200182016040528015610aa15781602001602082028036833780820191505090505b50905060005b6002600085815260200190815260200160002054811015610b585760046000858152602001908152602001600020600082815260200190815260200160002060009054906101000a900473ffffffffffffffffffffffffffffffffffffffff16828281518110610b1357fe5b602002602001019073ffffffffffffffffffffffffffffffffffffffff16908173ffffffffffffffffffffffffffffffffffffffff1681525050806001019050610aa7565b508091505091905056fea2646970667358221220e4d25c7c1601b179afc35d20c49ae57843d1e24bb6c83b21e87a792da3cd235364736f6c634300060c0033",
  "immutableReferences": {},
  "source": "// SPDX-License-Identifier: UNLICENSED\r\npragma solidity ^0.6.0;\r\n\r\ncontract Ownership {\r\n    uint256 fileCounter;\r\n    mapping(uint256 => address) public owners;\r\n    mapping(uint256 => uint256) public requestCounters;\r\n    mapping(uint256 => mapping(address => bool)) public access;\r\n    mapping(uint256 => mapping(uint256 => address)) public requests;\r\n\r\n    constructor() public {\r\n        fileCounter = 0;\r\n    }\r\n\r\n    /// @dev Restricted to owner\r\n    modifier onlyOwner(uint256 fileID) {\r\n        require(msg.sender == owners[fileID], \"Restricted to Account's Owner.\");\r\n        _;\r\n    }\r\n\r\n    function getFileOwner(uint256 fileID) public view returns (address) {\r\n        return owners[fileID];\r\n    }\r\n\r\n    function newFile() public {\r\n        owners[fileCounter] = msg.sender;\r\n        requestCounters[fileCounter] = 0;\r\n        access[fileCounter][msg.sender] = true;\r\n        ++fileCounter;\r\n    }\r\n\r\n    function getFileCounter() public view returns (uint256) {\r\n        return fileCounter;\r\n    }\r\n\r\n    function getFileRequests(uint256 fileID)\r\n        public\r\n        view\r\n        returns (address[] memory)\r\n    {\r\n        address[] memory answer = new address[](requestCounters[fileID]);\r\n        for (uint256 i = 0; i < requestCounters[fileID]; ++i){\r\n            answer[i] = requests[fileID][i];\r\n        }\r\n        return answer;\r\n    }\r\n\r\n    function allowAccess(uint256 fileID, address newUser)\r\n        public\r\n        onlyOwner(fileID)\r\n    {\r\n        access[fileID][newUser] = true;\r\n    }\r\n\r\n    function fulfillRequest(\r\n        uint256 fileID,\r\n        uint256 requestID,\r\n        bool approve\r\n    ) public onlyOwner(fileID) {\r\n        if (approve) {\r\n            access[fileID][requests[fileID][requestID]] = true;\r\n        }\r\n        delete requests[fileID][requestID];\r\n    }\r\n\r\n    function checkAccess(uint256 fileID, address user)\r\n        public\r\n        view\r\n        returns (bool)\r\n    {\r\n        return access[fileID][user];\r\n    }\r\n\r\n    function requestAccess(uint256 fileID) public {\r\n        requests[fileID][requestCounters[fileID]] = msg.sender;\r\n        ++requestCounters[fileID];\r\n    }\r\n}\r\n",
  "sourcePath": "C:\\Users\\horown\\Desktop\\SCIENCE Research\\contracts\\Ownership.sol",
  "compiler": {
    "name": "solc",
    "version": "0.6.12+commit.27d51765.Emscripten.clang"
  },
  "schemaVersion": "3.4.2",
  "updatedAt": "2022-08-09T08:21:51.496Z",
  "networkType": "ethereum",
  "devdoc": {
    "kind": "dev",
    "methods": {},
    "version": 1
  },
  "userdoc": {
    "kind": "user",
    "methods": {},
    "version": 1
  }
}